:100000000C94A8000C94D0000C94D0000C94D00058
:100010000C94D0000C94D0000C94D2000C94D0001E
:100020000C94D0000C94D0000C94D0000C94D00010
:100030000C94D0000C94D0000C94D0000C94D00000
:100040000C9452170C94D0000C94D0000C94D00057
:100050000C94D0000C94D0000C94D0000C94D000E0
:100060000C94F3120C94D00007634236B79BD8A7C8
:100070001A39685618AEBAAB558C1D3CB7CC5763CD
:10008000BD6DEDFD753EF6177231BF000000803F7B
:1000900008000000BE922449123EABAAAA2ABECD97
:1000A000CCCC4C3E00000080BEABAAAAAA3E000009
:1000B0000000BF000000803F000000000008417801
:1000C000D3BB4387D1133D190E3CC3BD4282AD2B38
:1000D0003E68EC8276BED98FE1A93E4C80EFFFBE30
:1000E00001C4FF7F3F000000000011121314151619
:1000F0000A0B0C0D0E0F000102030405000000089E
:1001000000020100000304070000000000000000DE
:10011000010204081020408001020408102001029E
:10012000040810200404040404040404020202026B
:10013000020203030303030300000000250028005C
:100140002B0000000000240027002A00CC03091225
:1001500011241FBECFEFD8E0DEBFCDBF11E0A0E07D
:10016000B1E0EEE7FAE302C005900D92A033B107CB
:10017000D9F723E0A0E3B1E001C01D92AA3BB2078A
:10018000E1F711E0C0E5D1E004C02297FE010E9432
:100190000F1DCC34D107C9F70E9402190C943D1DE4
:1001A0000C9400001F920F920FB60F9211242F9300
:1001B0003F934F935F936F937F938F939F93AF93EF
:1001C000BF93EF93FF930E940610FF91EF91BF91B1
:1001D000AF919F918F917F916F915F914F913F91DF
:1001E0002F910F900FBE0F901F901895CF92DF9216
:1001F000EF92FF9261E088E00E94CB186AEF70E016
:1002000080E090E00E9441108EE00E944C187C013A
:100210008EE00E944C18E80EF91E8EE00E944C18E9
:10022000E80EF91E8EE00E944C18E80EF91E8EE0D2
:100230000E944C18E80EF91E60E088E00E94CB187E
:10024000B701882777FD8095982F0E940D1A6B01C2
:100250007C0120E030E040EA50E4609101017091BF
:10026000020180910301909104010E94C11A9B0137
:10027000AC01C701B6010E947719FF90EF90DF90A3
:10028000CF900895CF92DF92EF92FF92CF9380911B
:10029000CC028093C402803709F484C018F5823000
:1002A00009F442C040F4813009F0DFC088ED92E0EB
:1002B0000E9460156BC0853609F471C08F3609F055
:1002C000D4C08091D4029091D502A091D602B09171
:1002D000D7028093110190931201A0931301B09360
:1002E0001401C3C0833709F47FC0B8F4813709F41F
:1002F0006AC0823709F0B9C08091D4029091D502CA
:10030000A091D602B091D702809305019093060187
:10031000A0930701B0930801A8C0843709F480C0F6
:10032000863709F48EC0A1C088ED92E00E94601566
:1003300023E333E948E853E40E9413199B01AC011D
:100340006BE774E18EE19FE30E94771920E030E0D3
:1003500040E85FE30E94131928E539E348EA50E4D6
:100360000E94241B6B017C0188ED92E00E94C31562
:100370000E940D1A9B01AC01C701B6010E94C11A6F
:1003800020E030E048EC52E40E9477196093D402F8
:100390007093D5028093D6029093D70266C00E94D4
:1003A000F600F4CF8091D4029091D502A091D602AC
:1003B000B091D70280930D0190930E01A0930F018D
:1003C000B093100152C08091D4029091D502A091B7
:1003D000D602B091D7028093090190930A01A093AD
:1003E0000B01B0930C0141C020E030E040E05FE33E
:1003F0006091D4027091D5028091D6029091D7027B
:100400000E94BD1A18163CF481E090E09093CF0250
:100410008093CE022AC01092CF021092CE0225C045
:100420008091D4029091D502A091D602B091D702CA
:100430008093010190930201A0930301B093040102
:1004400014C0C1E020E030E040E05FE36091D402FE
:100450007091D5028091D6029091D7020E94BD1A68
:1004600018160CF0C0E0C093B90228E030E040ED6F
:1004700052E06EEB72E080E391E0CF91FF90EF905D
:10048000DF90CF900C94A50A0F931F93CF93DF9327
:1004900061E087E00E94921861E088E00E94921873
:1004A00060E08EE00E94921883E00E94491861E0AB
:1004B00087E00E94CB180E94D00F81EF92E00E944B
:1004C000791163E088ED92E00E94A21482EA92E042
:1004D0000E94560F63E082EA92E00E94FB0E42E027
:1004E0006FE082EA92E00E94C70F42E050E06AE5C6
:1004F00080E391E00E94E90662E070E082EA92E027
:100500000E94140F61E087E00E94CB1817E7CAE051
:10051000D0E001E08091B90281115CC080910001BE
:10052000882331F18091BC029091BD02892B01F5A5
:100530001093C4021092D1021092D0021092D302F2
:100540001092D2021092D4021092D5021092D602CA
:100550001092D70228E030E040ED52E06EEB72E0FE
:1005600080E391E00E94A50AD093BD02C093BC0233
:1005700080E391E00E947D0880E391E00E9467059E
:10058000882391F028E030E040ED52E066EC72E024
:1005900080E391E00E947505109200011092BD0267
:1005A0001092BC020E9442016EE170E080E090E097
:1005B0000E9441108091BC029091BD0201979093DE
:1005C000BD028093BC0288319C4F08F0A3CF0093FA
:1005D0000001A0CF64EF71E080E090E00E94CB17B3
:1005E00060E087E00E94CB1881E08093B802DF9141
:1005F000CF911F910F91089561E087E00E94CB1881
:1006000080E391E00E947D08882359F081E0809387
:10061000B8021092B4021092B5021092B602109273
:10062000B70280E391E00E9467058823D9F081E05A
:100630008093B8021092B4021092B5021092B602E2
:100640001092B7021092BB021092BA0228E030E07A
:1006500040ED52E066EC72E080E391E00E947505A7
:100660000E94420160E087E00E94CB1820910501C2
:100670003091060140910701509108016091B40248
:100680007091B5028091B6029091B7020E94BD1A96
:10069000181614F41092B8028091B8028823E9F079
:1006A0006AEF70E080E090E00E94411020E030E0CE
:1006B00040E85EE36091B4027091B5028091B602A9
:1006C0009091B7020E9413196093B4027093B5021F
:1006D0008093B6029093B70208958091CE029091D4
:1006E000CF02892B21F482EA92E00E94510C809182
:1006F000BA029091BB0220E030E04AE754E4892B33
:1007000049F460911101709112018091130190914F
:10071000140108C060910D0170910E0180910F01CC
:10072000909110010E94C11A0E94DF1980E090E0B0
:100730000E9441108091CE029091CF02892B41F40A
:1007400082EA92E00E94630C82EA92E00E94650EC7
:1007500020E030E04AE754E46091090170910A0119
:1007600080910B0190910C010E94C11A0E94DF1927
:1007700080E090E00E9441108091BA029091BB020B
:10078000019681362AEE920710F081E090E0909376
:10079000BB028093BA02089588ED92E00E94201473
:1007A0001092C1021092C002809115019091160121
:1007B0009C012F5F3F4F30931601209315019093BA
:1007C000C3028093C2021092C40249E06AE082EA46
:1007D00092E00E94090C62EA72E080E391E00C94DE
:1007E000F103FC0170AB67A7E153FF4F9C012B5C49
:1007F0003F4F318320833C9628553F4F31832083E0
:100800002C503109FC0130A727A308958F929F92A5
:10081000AF92BF92CF92DF92EF92FF920F931F930E
:10082000CF93DF93EC018B018CA828EF820EFB01A4
:1008300046818CE6840F833020F0483C09F0C9C023
:1008400003C0443909F4E0C08BE6840F823018F00D
:10085000483C09F089C07E0159EDE50EF11CF70115
:1008600080819181912C9401280F391F2139310504
:1008700020F0C852DF4F1882AAC06E01F8EDCF0EEB
:10088000D11CF6012081222309F4A1C0463921F0B0
:10089000F801378132139BC0FE01EB52FF4F4081BC
:1008A0005181F801248135814217530709F08FC027
:1008B0005E01FBEDAF0EB11CF50120813181A40179
:1008C000BE01615F7F4F820F931F0E94221DF701BF
:1008D00080819181880D991D91838083F801268103
:1008E000F601263921F08081815080836EC010820C
:1008F000F8012781FE01E952FF4F2083233809F4D4
:1009000081C08E0101531F4FF801A081B1819E016A
:100910002A1B3B0B2B533F4F28173907E8F0329621
:100920008AE001900D928A95E1F7F801808191812A
:10093000F50160817181F701408151810A960E9421
:10094000221DF70120813181265F3F4FF801808110
:100950009181820F931F37C08FA598A90E941B0C0D
:100960008AA581608AA733C08E0101531F4FF80109
:10097000A081B181E82CF12CCE01C5969D01281BE8
:10098000390BC9018E0D9F1D8B39910504F5E85C6B
:10099000F10988E001900D928A95E1F7F8018081D4
:1009A0009181FC01F186E086BE01615F7F4FA70166
:1009B0000A960E94221DFAE0EF0EF11CF8018081D8
:1009C00091818E0D9F1D9183808381E073C080E0B3
:1009D00071C0433849F6DE01AF52BF4FFE01379672
:1009E00088E001900D928A95E1F7FE01E552FF4FF4
:1009F000CE010F9691838083C752DF4FE82CF12CF4
:100A0000F982E88282E056C0F80127812B3908F08C
:100A100030CFFE01EB52FF4F40815181F8018481BC
:100A20009581BE016F527F4F6B014817590749F4FA
:100A3000FB0140815181F80180819181481759075C
:100A400021F2F8E12F9F90011124FE01E153FF4FA5
:100A500080819181AE01481B590BCA018B539F4F76
:100A6000821793073CF48AA581608AA78FA598A96D
:100A70000E941B0CFE01379688E0D60101900D9272
:100A80008A95E1F7E82CF12CFE01E552FF4FBE01FB
:100A9000615F7F4FA701808191810E94221DFE012D
:100AA000E752FF4FF182E082C852DF4F88818150C8
:100AB00088838BCFDF91CF911F910F91FF90EF90A3
:100AC000DF90CF90BF90AF909F908F900895FC01E2
:100AD000E153FF4F9C012B5C3F4F81E040815181EE
:100AE0002417350708F080E00895CF92DF92EF9247
:100AF000FF920F931F93CF93DF938C01CA0168017C
:100B000045E3C40ED11C7801EFECEE0EF11CF701A9
:100B100040815181C416D50678F548E0F601DB0125
:100B200001900D924A95E1F7F801C5ADD6AD2115BA
:100B3000310551F0A901C217D30708F4AE01B8017D
:100B4000615C7F4F0E94221D4AE950E04C1B5D0B07
:100B5000BE01615C7F4F600F711FC6010E942B1D9B
:100B600026EF3FEF2C1B3D0BF70180819181820F17
:100B7000931F9183808302C0C0E0D0E0CE01DF915B
:100B8000CF911F910F91FF90EF90DF90CF9008953C
:100B9000FC01E059FE4F20813181AB0142235323F8
:100BA000FC0182A993A94817590761F42095309553
:100BB00083E0220F331F8A95E1F72623372381E054
:100BC000232B09F080E00895BF92CF92DF92EF923D
:100BD000FF920F931F93CF93DF937C018B01FC0156
:100BE000E359FE4FD080C1803296B080FB018281F4
:100BF00020819181C22FD92F823020F081E0838320
:100C000090E025C0BE01C7010E94C80581111EC029
:100C1000F701E059FE4F20813181BE016223732329
:100C2000F70142A953A96417750739F08B2D65E0C8
:100C30000E94991CCD2DDC2D0AC0C90123E0880F2C
:100C4000991F2A95E1F78760C823D92395E0F80119
:100C5000D183C083928381E0DF91CF911F910F9167
:100C6000FF90EF90DF90CF90BF900895DC01D29677
:100C70002D913C91D397E0E04FEF5FEFBA016223F3
:100C80007323672B39F0B3E0440F551FBA95E1F792
:100C9000EF5FF4CFDC01D196EC9340955095FC01C9
:100CA000E059FE4F51834083A3E056954795AA959E
:100CB000E1F73397BA01622373237183608341158F
:100CC000510559F063E0369527956A95E1F773E091
:100CD000569547957A95E1F7F2CFFC01E159FE4F21
:100CE000208308956115710551F0862F8770863035
:100CF00040F4F3E076956795FA95E1F7F3CF81E05C
:100D0000089580E00895882379F090E001979C0190
:100D1000220F331F280F391F81E090E002C0880F97
:100D2000991F2A95E2F7089580E090E00895CF9307
:100D3000DF93CDB7DEB728970FB6F894DEBF0FBEAE
:100D4000CDBF2CEC29832A832B832C832D831E82F9
:100D50001F8218869C0141E021153105C1F0611107
:100D600002C0009769F4D901A770BB27A85EBE4FE7
:100D70005C91A1E0B0E0AC0FBD1FA40FB11D5C936E
:100D8000B3E036952795BA95E1F74F5FE5CF61114E
:100D900002C0892B39F4E62FF0E0E85EFE4F808137
:100DA000898306C0E42FF0E0E95EFE4F80818A83EC
:100DB00029813A814B815C816D817E818F8198850B
:100DC00028960FB6F894DEBF0FBECDBFDF91CF914E
:100DD0000895BF92CF92DF92EF92FF920F931F93ED
:100DE000CF93DF93EC01162F6A01BA010E947206BD
:100DF000882309F45AC0DBAACAAA8FA598A9FC01C6
:100E000020812F3F09F451C021812F3F09F44DC0AB
:100E10001F3F19F0612F0E94140C40E060E08FA585
:100E200098A90E94C60E8FA598A90E94AB0E8AA908
:100E30009BA966E070E00E94A51C682F660F6B5F9F
:100E400045E08FA598A90E94C70F09E110E020E0B6
:100E500030E009831A832B833C838BE490E09E83EC
:100E60008D83CE010E94360616E0B12EBA94FFEFB4
:100E7000BF1671F06B2DC6010E94970679018A0199
:100E80009B01AC016B2D8FA598A90E94D80DEECFC8
:100E90008FA598A9DF91CF911F910F91FF90EF90AF
:100EA000DF90CF90BF900C94650EDF91CF911F9192
:100EB0000F91FF90EF90DF90CF90BF9008959F9299
:100EC000AF92BF92CF92DF92EF92FF920F931F9358
:100ED000CF93DF93EC01CB01F22E642F0E94970693
:100EE0008901942EA52EB62EC72ED82EE92E8AA5BE
:100EF00082FD04C08FA598A90E941B0C8FA598A9FC
:100F0000FF2011F040E001C041E060E00E94C60E09
:100F1000292D3A2D4B2D5C2D6D2D7E2D8FA598A959
:100F20000E949D0D2F2D4CA9BE01695F7F4F8FA59B
:100F300098A90E94990CF82E8AA582FD10C04981BB
:100F40005A816B817C8120E08FA598A90E94DF0CDB
:100F5000F82E40E060E08FA598A90E94C60E8F2D64
:100F6000DF91CF911F910F91FF90EF90DF90CF9085
:100F7000BF90AF909F9008958F929F92AF92BF9233
:100F8000CF92DF92EF92FF920F931F93CF93DF9355
:100F900000D000D0CDB7DEB78C017B01D42EFC0190
:100FA000C5840E947206882309F496C08FEB8C0DCD
:100FB000CC24C3948F3708F0C12C19821A821B826B
:100FC0001C82FA82E982DB82BE016F5F7F4FC8011B
:100FD0000E94E40569817A812C814B81C8010E94BD
:100FE0005F07F1E0DF1227C0811102C0F12C6BC056
:100FF00089819A818E159F0501F5CC20F1F081EC55
:10100000F801858787819085928781879A83898374
:10101000DB821C82BE016F5F7F4FC8010E94E40526
:1010200088E0F80184AB69817A812C814B81C80109
:101030000E945F0702C08823C9F289819A818E15B8
:101040009F0519F4FF24F3943EC0DD2019F0F3E06E
:10105000DF12F8CFCC20B1F3F80182A582FF13C0D4
:10106000418152816381748120E087A590A90E940B
:10107000DF0CF80182A58B7F82A740E060E087A5A6
:1010800090A90E94C60EF80187A590A90E94650E3E
:101090000E949C176B017C01C8010E947D08813C65
:1010A00089F20E949C176C197D098E099F09F8012D
:1010B000258136814901A12CB12C86169706A806F8
:1010C000B90650F793CFF80182A582FD04C087A529
:1010D00090A90E94650E8F2D0F900F900F900F908A
:1010E000DF91CF911F910F91FF90EF90DF90CF9004
:1010F000BF90AF909F908F9008957F928F929F9214
:10110000AF92BF92CF92DF92EF92FF920F931F9315
:10111000CF93DF931F92CDB7DEB78C01FC0142A5C0
:1011200041FD16C0E153FF4F9C012B5C3F4F40FD3A
:1011300007C080819181821B930B8937910544F010
:101140008081918128173907E8F04E7FF80142A786
:10115000712C7801F7E0EF0EF11C680121E9C21A49
:101160002EEFD20A94E2A92E99E0B92EF80187A5B4
:1011700090A9FC0120812F3F09F4BDC021812F3FA0
:1011800019F4B9C080E0B8C0BE016F5F7F4F0E9404
:10119000730D882309F4AFC0F80187A590A90E94B8
:1011A000510DF80184AB883038F46AE070E080E0DB
:1011B00090E00E94CB17DACF482FB701F80187A53E
:1011C00090A90E94910DF80181849284B401C80114
:1011D0000E947206882351F2F801758482A993A9AE
:1011E0008816990609F046C0F2E87F1609F4BECFCA
:1011F00020E8721213C084E2881689E09806E9F0AC
:10120000F801B286A18642E064E279E0C8010E945A
:10121000BC076AE070E080E090E046C0F3EC7F122B
:101220000CC08114910449F0F801908687821286DF
:10123000118640E060E070E05AC0F80181A5882383
:1012400019F077FE0EC003C0F1EC7F120AC08CE6E5
:10125000870D833030F028EC721619F083E878128D
:101260004AC0B701C8010E940604823009F07ECF4F
:1012700083E842C0E0E48E169104B9F5F2EC7F12E7
:101280001AC0843229E09207B1F0F80122A523FDAB
:101290006DCF278130853287218790878783F6013C
:1012A000608170E080E090E00E94CB17F8016185DA
:1012B000728542E01CC0B701C8010E940604982E46
:1012C000F8018081882369F081A90E948306BC010E
:1012D00083E0660F771F8A95E1F744E0C8010E941A
:1012E000BC07F2E09F1242CFC3CF41E0B401C80176
:1012F0000E94BC073BCF872D0F90DF91CF911F91AC
:101300000F91FF90EF90DF90CF90BF90AF909F90A4
:101310008F907F900895EF92FF920F931F93CF933A
:10132000DF93EC017B01BA018AA99BA9F7019183A4
:101330008083DE01179688E001900D928A95E1F78F
:101340002115310529F0A901CE010F960E94221D19
:10135000F701628173810833110561F06034710512
:1013600011F043E001C044E06017710709F442E066
:10137000B80101C040E0CE01DF91CF911F910F91E4
:10138000FF90EF900C94BC072F923F924F925F9288
:101390006F927F928F929F92AF92BF92CF92DF9285
:1013A000EF92FF920F931F93CF93DF93EC017B019A
:1013B0005A01690148010E949C174BA45CA46DA4CA
:1013C0007EA464197509860997096931710581053B
:1013D000910528F4CE010E947D0887FFECCF88ECB0
:1013E00090E00E94051889E1C816D10468F488E0ED
:1013F0008C0D8CAB84019601A501B701CE010E9432
:101400008B0981118CC084C0E1E9CE16D10408F0AB
:1014100088C0C60168E170E00E94A51C21E0892B0C
:1014200009F420E0C60168E170E00E94A51C722E5C
:10143000760EF701828193818034910539F08AA577
:1014400084608AA78FA598A90E941B0CF70146808B
:10145000612C512C24E9222E36E9332EF7017782B4
:10146000F1E07F1204C0F7013682478208C05110B4
:1014700003C0F701268203C085E9F7018683E8E10E
:101480005E9EA00111249601241B350B29313105E4
:1014900010F028E130E088E0820F8CAB4A0D5B1D34
:1014A0008401B701CE010E948B09182F81110BC056
:1014B00062E070E080E090E00E94CB176394F2E07D
:1014C000F61520F405C07A945394612C7110C6CFA0
:1014D000F70146828AA582FF14C049815A816B8137
:1014E0007C8120E08FA598A90E94DF0C182F8FA582
:1014F00098A90E94650E40E060E08FA598A90E941F
:10150000C60E8AA58B7F8AA7112359F0772039F060
:101510000E949C176BA77CA78DA79EA702C081E0A5
:1015200001C080E0DF91CF911F910F91FF90EF906C
:10153000DF90CF90BF90AF909F908F907F906F90F3
:101540005F904F903F902F9008950F931F9308E363
:1015500010E00E94C4091F910F9108958EBD0000F4
:101560000DB407FEFDCF8EB508952CB52F7D2CBD93
:101570002CB5237F2CBD2CB52C7F2CBD2DB5216027
:101580002DBDFC0181810E94CB1885E090E00C9478
:101590000518FC018081918189130C94CB18089562
:1015A00060E00C94B50A61E00C94B50AEF92FF92EA
:1015B0001F93CF93DF931F92CDB7DEB77C01698372
:1015C0000E94D00A6981862F8F710E94AE0A8FEF28
:1015D0000E94AE0A182FC7010E94D30A812F0F90D4
:1015E000DF91CF911F91FF90EF900895CF92DF92FE
:1015F000EF92FF920F931F93CF93DF9300D01F9230
:10160000CDB7DEB78C01F22E4A835B8369830E94DB
:10161000D00A6981862F8F7180620E94AE0AE82EFF
:101620004A81C42E5B81D52EF40EFC1431F0F601F4
:1016300081916F010E94AE0AF8CFC8010E94D30ABF
:101640008E2D0F900F900F90DF91CF911F910F91E2
:10165000FF90EF90DF90CF900895EF92FF921F934D
:10166000CF93DF9300D0CDB7DEB77C014A83698387
:101670000E94D00A6981862F8F7180620E94AE0A13
:10168000182F4A81842F0E94AE0AC7010E94D30AF4
:10169000812F0F900F90DF91CF911F91FF90EF90CE
:1016A0000895AF92BF92DF92EF92FF920F931F9334
:1016B000CF93DF9300D01F92CDB7DEB78C01FC0132
:1016C000E580F42EE41608F4FE2CF80186818111E1
:1016D00002C0EF1801C0E12CC80129836A837B8313
:1016E0000E94D00A2981822F0E94AE0AD82E6A81D8
:1016F000A62E7B81B72EF60EFA1431F0F5018191FA
:101700005F010E94AE0AF8CFEE2029F080E00E942F
:10171000AE0AEA94F9CFC8010E94D30A8D2D0F902A
:101720000F900F90DF91CF911F910F91FF90EF904D
:10173000DF90BF90AF900895AF92BF92DF92EF928B
:10174000FF920F931F93CF93DF9300D0CDB7DEB7F7
:101750008C01FC01E580F42EE41608F4FE2CF8015F
:101760008681811102C0EF1801C0E12CC801698394
:101770007A830E94D00A81E60E94AE0AD82E69813F
:10178000A62E7A81B72EF60EFA1439F08FEF0E944A
:10179000AE0AF50181935F01F7CFEE2029F08FEFBC
:1017A0000E94AE0AEA94F9CFC8010E94D30A8D2D97
:1017B0000F900F90DF91CF911F910F91FF90EF90BD
:1017C000DF90BF90AF900895EF92FF921F93CF9359
:1017D000DF931F92CDB7DEB77C0169830E94D00AE8
:1017E0006981862F0E94AE0A182FC7010E94D30A72
:1017F000812F0F90DF91CF911F91FF90EF9008956F
:1018000062EE0C94E40B61EE0C94E40B6FEF0C941D
:10181000E40BFC0160834183148280E2858316829D
:1018200085E0848717820895462F6E3708F04DE7CC
:1018300065E00C942D0BCF93DF93EC0160E00E94E8
:10184000C90A8D859E850E9405186DE1CE010E9412
:10185000D60A81FF07C08D859E850E940518CE019E
:101860000E94030C60E0CE010E94D60A482F4E7FF2
:1018700060E0CE010E942D0B62E0CE010E94D60AEC
:10188000E6EFF0E0E49121E030E001C0220FEA95BC
:10189000EAF7822B482F62E0CE01DF91CF910C94C2
:1018A0002D0BCF93DF93EC0160E00E94C90A60E04A
:1018B000CE010E94D60A482F4D7F60E0CE01DF9115
:1018C000CF910C942D0BCF93DF93EC0160E00E943D
:1018D000D60A81FD12C060E0CE010E94D60A482FD0
:1018E000426060E0CE010E942D0B65E070E080E078
:1018F00090E0DF91CF910C94CB17DF91CF910895B9
:101900000F93CF93DF93EC01222311F020EB01C062
:1019100020EACE010E94510B002339F061E0CE0194
:10192000DF91CF910F910C94C90ADF91CF910F9164
:1019300008958F929F92AF92BF92CF92DF92EF92D3
:10194000FF920F93CF93DF93EC017B01D42EC22E35
:101950000E949C174B015C01CE010E94060C80FF87
:101960001AC0CE010E94060C84FF06C040E167E069
:10197000CE010E942D0B0DC00E949C176819790999
:101980008A099B09663571058105910528F381E077
:10199000898B80E008C001E02C2D4D2DB701CE01D0
:1019A0000E94800C81E0DF91CF910F91FF90EF902A
:1019B000DF90CF90BF90AF909F908F9008954F92FF
:1019C0005F926F927F928F929F92AF92BF92CF92CF
:1019D000DF92EF92FF92CF93DF93EC014A015B011C
:1019E000222331F00E941B0C61E0CE010E94C90A43
:1019F0000E949C176B017C012401350185E5480E8E
:101A0000511C611C711C67E1CE010E94D60A84FD45
:101A100034C0CE010E94060C84FF20C040E167E084
:101A2000CE010E942D0B60E0CE010E94C90A61E048
:101A3000CE010E94C90A0E949C176C197D098E096B
:101A40009F09681579058A059B0540F060E0CE0185
:101A50000E94C90ACE010E94030C0DC00E949C176F
:101A60006C197D098E099F09461657066806790686
:101A700050F681E0898B80E005C060E0CE010E94D5
:101A8000C90A81E0DF91CF91FF90EF90DF90CF9076
:101A9000BF90AF909F908F907F906F905F904F908E
:101AA00008951F93CF93DF93EC010E94D00A80E644
:101AB0000E94AE0A8FEF0E94AE0A182FCE010E943C
:101AC000D30A113258F0CE010E94000C62E070E09F
:101AD00080E090E00E94CB1780E001C0812FDF9171
:101AE000CF911F9108950F931F93CF93DF938C0194
:101AF000EB0167E10E94D60A80FD0BC0209759F0E8
:101B0000C8010E94060C90E09595879587708883A0
:101B100002C080E001C081E0DF91CF911F910F9161
:101B20000895CF93DF93EC010E949C0B40E767E0A0
:101B3000CE01DF91CF910C942D0BEF92FF920F937A
:101B40001F93CF93DF93CDB7DEB728970FB6F894E6
:101B5000DEBF0FBECDBF7C0109831A832B833C837C
:101B60004D835E836F837887FC012485AE014F5FD0
:101B70005F4F6AE00E94F60AF7012485AE014F5FCD
:101B80005F4F60E1C7010E94F60AF701458161E1FC
:101B9000C7010E942D0B28960FB6F894DEBF0FBE2A
:101BA000CDBFDF91CF911F910F91FF90EF900895DE
:101BB000BF92CF92DF92EF92FF920F931F93CF933A
:101BC000DF93CDB7DEB728970FB6F894DEBF0FBE10
:101BD000CDBF6C01B62EE982FA820B831C832D8364
:101BE0003E834F83588761110AC0FC01448550E051
:101BF000BE016F5F7F4F07960E94221D07C0F6E06F
:101C0000F61708F436C081E0681308C0EB2DF0E049
:101C1000E051FF4F6491F601248506C0E62FF0E005
:101C2000E051FF4F649121E0AE014F5F5F4FC6016D
:101C30000E94F60A0B2D10E0F801E651FF4F649167
:101C4000F6014581C6010E942D0B62E0C6010E948B
:101C5000D60AF801EA50FF4F049121E030E001C0BC
:101C6000220F0A95EAF7822B482F62E0C6010E94F4
:101C70002D0B28960FB6F894DEBF0FBECDBFDF91B7
:101C8000CF911F910F91FF90EF90DF90CF90BF9079
:101C900008951F93CF93DF93EC01162F62E00E940B
:101CA000D60AE12FF0E0EA50FF4FE49141E050E026
:101CB00001C0440FEA95EAF74095482362E0CE015F
:101CC000DF91CF911F910C942D0BCF93DF93EC01FB
:101CD0000E94630C60E0CE010E94D60A482F41604A
:101CE00060E0CE010E942D0B40E767E0CE010E942C
:101CF0002D0B61E0CE010E94C90A8F81882349F033
:101D00002C85AE01495F5F4F6AE0CE010E94F60A62
:101D100004C060E0CE010E94490E6DE1CE010E9438
:101D2000D60A81FF05C0CE01DF91CF910C94030C40
:101D3000DF91CF910895CF93DF93EC010E94D00AF9
:101D400080E50E94AE0A83E70E94AE0ACE01DF91D1
:101D5000CF910C94D30ACF93DF93EC016DE10E94F5
:101D6000D60A482F44606DE1CE010E942D0B6CE134
:101D7000CE010E94D60A482F4F636CE1CE010E942B
:101D80002D0B81E08E83DF91CF910895EF92FF922A
:101D90001F93CF93DF931F92CDB7DEB77C01162F31
:101DA000673010F561E049830E94D60A49814423D7
:101DB00049F041E050E0012E01C0440F0A94EAF7D7
:101DC000482B08C041E050E001C0440F1A95EAF7E3
:101DD0004095482361E0C7010F90DF91CF911F919B
:101DE000FF90EF900C942D0B0F90DF91CF911F91EE
:101DF000FF90EF9008951F93CF93DF93EC01162F80
:101E000066E00E94D60A887F143020F4612F660FA6
:101E10006F5F01C067E0462F482B66E0CE01DF917F
:101E2000CF911F910C942D0BEF92FF920F931F9364
:101E3000CF93DF931F92CDB7DEB77C018B0166E0B5
:101E40000E94D60A582F577D0230110531F4506296
:101E50000BE910E020E030E00DC00130110529F061
:101E600005E510E020E030E005C0586001E410E036
:101E700020E030E0F701058716872787308B452F54
:101E800066E0C70159830E942D0B66E0C7010E94DE
:101E9000D60A91E05981851390E0892F0F90DF9148
:101EA000CF911F910F91FF90EF9008951F93CF93C3
:101EB000DF93EC0188819981891719F061E00E9414
:101EC000921889819881981719F061E00E94921800
:101ED0000E94D00F60E0CE010E94C90A61E0CE01ED
:101EE0000E94B50A65E070E080E090E00E94CB17A8
:101EF0004CE060E0CE010E942D0B4FE564E0CE0186
:101F00000E942D0B62E070E0CE010E94140F882326
:101F100011F081E08C8366E0CE010E94D60A182F72
:101F200060E070E0CE010E94140FCE010E949B0E73
:101F300040E06DE1CE010E942D0B40E06CE1CE014E
:101F40000E942D0B40E767E0CE010E942D0B6CE450
:101F5000CE010E94140CCE010E94000CCE010E9402
:101F6000030CCE010E94630C60E0CE010E94D60AF1
:101F7000482F4E7F60E0CE010E942D0B115081E072
:101F80001E3F08F080E0DF91CF911F91089520E17E
:101F9000629FB00111244F70462B64E00C942D0B0E
:101FA000CF93CFB7F8948091EF02811127C0EEE272
:101FB000F1E08491EAE1F1E09491E82FF0E0EE0F96
:101FC000FF1FEE5BFE4FA591B4918C91892321F404
:101FD00061E08AE00E94CB1861E08AE00E949218DA
:101FE0008CB580618CBD8CB580648CBD61E08DE06A
:101FF0000E94921861E08BE00E9492188091EF029B
:102000008F5F8093EF02CFBFCF9108958091F00250
:102010008F5F8093F002089583FF02C098E28927C2
:1020200087FD02C0806401C080E094B7977F94BFB1
:10203000F8949091600098619093600080936000A4
:1020400078940895EAE7F0E0908180818F7780832B
:1020500083B7817F846083BFF89483B7816083BF37
:102060007894889583B78E7F83BF90937A00089584
:102070001092F0020E940C100E9422108FEF0C941C
:102080000C10CF92DF92EF92FF926B017C0189E0FE
:10209000C81680E2D806E104F10450F089E00E94FD
:1020A000381088E0C81A80E2D80AE108F108EFCFBA
:1020B00085E0C81680E1D806E104F10448F088E024
:1020C0000E94381084E0C81A80E1D80AE108F108BB
:1020D00081EDC81687E0D806E104F10448F087E0F6
:1020E0000E94381080EDC81A87E0D80AE108F1088C
:1020F00089EEC81683E0D806E104F10448F086E0D2
:102100000E94381088EEC81A83E0D80AE108F10866
:1021100085EFC81681E0D806E104F10448F085E0B7
:102120000E94381084EFC81A81E0D80AE108F1084B
:102130008BEFC816D104E104F10440F084E00E9462
:1021400038108AEFC81AD108E108F1088EE7C816DE
:10215000D104E104F10440F083E00E9438108DE7DF
:10216000C81AD108E108F1088DE3C816D104E104CA
:10217000F10440F082E00E9438108CE3C81AD108C4
:10218000E108F1088FE1C816D104E104F10440F040
:1021900081E00E9438108EE1C81AD108E108F108E8
:1021A00080E1C816D104E104F10438F081E0FF9029
:1021B000EF90DF90CF900C943810FF90EF90DF906D
:1021C000CF9008958091210390E020912203821BFB
:1021D000910908952091220380912103281750F43A
:1021E000E22FF0E0ED5DFC4F808190E02F5F2093C7
:1021F000220308958FEF9FEF0895E09122038091CD
:102200002103E81730F4F0E0ED5DFC4F808190E0B1
:1022100008958FEF9FEF08950895CF92DF92EF9288
:10222000FF920F931F93CF93DF937C01CB018A0121
:102230002091FD02222389F0EB016B01C40ED51E13
:10224000CC15DD0569F06991D701ED91FC91019004
:10225000F081E02DC7010995F3CF642F0E94CA12C7
:10226000C801DF91CF911F910F91FF90EF90DF9008
:10227000CF900895CF93DF931F92CDB7DEB76983D8
:102280002091FD022223D1F02091FE02203240F065
:1022900021E030E0FC013383228380E090E015C030
:1022A0008091FF02E82FF0E0E050FD4F998190838C
:1022B0008F5F8093FF028093FE0205C061E0CE0134
:1022C00001960E94CA1281E090E00F90DF91CF91B9
:1022D0000895FC011382128248EE53E060E070E042
:1022E000448355836683778383E291E0918380837F
:1022F000089510922203109221031092FF0210926F
:10230000FE020C940D1281E08093FD026093200385
:102310001092FF021092FE0208950C9483110F9305
:10232000062F21E04091FE0260E073E080912003DF
:102330000E9473121092FF021092FE021092FD0290
:102340000F9108958F929F92AF92BF92CF92DF929A
:10235000EF92FF920F931F93CF93DF93EC01F62E32
:10236000D42E48015901EE2019F10E9483111E2D2F
:10237000143008F013E01150B8F0E881F98128E03A
:10238000129FB0011124A501940104C056954795F0
:10239000379527956A95D2F7CA01B9010190F08166
:1023A000E02DCE010995E7CF60E0CE010E948F11AC
:1023B0004D2D413208F040E22C2D63E273E08F2D69
:1023C0000E942B121092220380932103DF91CF9160
:1023D0001F910F91FF90EF90DF90CF90BF90AF9043
:1023E0009F908F900895CF92EF920F931F93C22EDC
:1023F000E12C00E010E098010E94A2111F910F91C2
:10240000EF90CF90089521E00C94F31161E00C94CB
:102410008F1181EF92E00C9469111092B00381E06A
:102420008093AE031092AD0361E082E10E94CB186D
:1024300061E083E10E94CB18E9EBF0E080818E7FC0
:10244000808380818D7F808380E28093B80085E4E3
:102450008093BC000895413208F043C09091B003CE
:102460009111FCCF91E09093B0032093AE032FEF36
:102470002093430310928803240F209387039093A3
:10248000AF039091AF03880F892B8093AF038091A6
:10249000AD03813061F41092AD038091AF0380935E
:1024A000BB008091BC0083FDF8CF85EC01C085EEB8
:1024B0008093BC008091B0038130E1F38091880368
:1024C000841710F44091880329E833E0FB01D90117
:1024D0008A2F821B841718F48D918193F9CF842F52
:1024E000089580E008950F93413208F04AC090911A
:1024F000B0039111FCCF92E09093B0030093AE0330
:102500009FEF909343031092880340938703FB014E
:1025100069E873E0DB019A2F961B941718F49191E8
:102520009D93F9CF1092AF039091AF03880F892B41
:102530008093AF038091AD03813061F41092AD03BD
:102540008091AF038093BB008091BC0083FDF8CFE6
:1025500085EC01C085EE8093BC00222321F08091A0
:10256000B0038230E1F3809143038F3F61F08091AB
:102570004303803251F080914303803341F483E080
:1025800007C081E005C080E003C082E001C084E0B4
:102590000F910895613298F42091B003243089F4AA
:1025A00060936503FC0187E693E0DC012A2F281B7A
:1025B000261718F421912D93F9CF80E0089581E03A
:1025C000089582E0089585ED8093BC008091BC0061
:1025D00084FDFCCF1092B003089585EC8093BC007D
:1025E0001092B00308951F920F920FB60F9211240C
:1025F0002F933F934F935F936F937F938F939F930B
:10260000AF93BF93EF93FF938091B900887F80369B
:1026100009F49EC078F5883209F45DC090F48031E9
:1026200009F456C038F4882309F4F5C0883009F459
:102630004FC0F5C0883109F44EC0803209F45FC044
:10264000EEC0803409F46AC058F4803309F457C0EE
:10265000883309F0E4C0809343030E94ED12DFC089
:10266000803509F44FC0883509F45DC0883409F01D
:10267000D6C0D3C0883909F4C4C0A8F4883709F497
:1026800067C038F4883609F463C0803709F460C045
:10269000C6C0883809F4B5C0803909F45FC08038F5
:1026A00009F0BDC05BC0803B09F483C038F4803AB8
:1026B00009F466C0883A09F47CC0B1C0803C09F4D2
:1026C000A4C0883C09F4A1C0883B09F487C0A7C016
:1026D0008091AF0310C09091880380918703981771
:1026E00070F5E091880381E08E0F80938803F0E01D
:1026F000E757FC4F80818093BB0085EC83C08093BB
:1027000043038BC0E091880381E08E0F80938803A0
:102710008091BB00F0E0E757FC4F808390918803E5
:10272000809187036BC0E091880381E08E0F8093D6
:1027300088038091BB00F0E0E757FC4F80838091D5
:10274000AE0381116AC081E08093AD0384EA5EC06C
:1027500083E08093B00310924403CFCF8091440371
:10276000803208F04EC0E091440381E08E0F8093E8
:1027700044038091BB00F0E0EB5BFC4F8083BDCF56
:102780000E94ED1280914403803230F4E0914403C2
:10279000F0E0EB5BFC4F10826091440370E0E0914D
:1027A000A903F091AA0385E493E0099510924403EC
:1027B00036C084E08093B0031092660310926503E4
:1027C000E091AB03F091AC03099580916503811111
:1027D00005C081E08093650310926703E091660372
:1027E00081E08E0F80936603F0E0E959FC4F808111
:1027F0008093BB009091660380916503981708F45D
:102800007CCF85E88093BC000AC085EC8093BC0037
:102810001092B00304C0109243030E94E312FF9190
:10282000EF91BF91AF919F918F917F916F915F9148
:102830004F913F912F910F900FBE0F901F901895C1
:1028400008951F93CF93DF931F92CDB7DEB7162F56
:1028500067E770E081EF92E049830E948D11612F5C
:1028600081EF92E00E943A114981642F81EF92E05A
:102870000E943A1181EF92E00F90DF91CF911F916A
:102880000C940612CF93C62F67E770E081EF92E0B9
:102890000E948D116C2F81EF92E00E943A1181EF1E
:1028A00092E00E94061267E770E081EF92E00E94DA
:1028B0008D1141E050E067E770E081EF92E00E9407
:1028C000031281EF92E00E94EA10C82F81EF92E09C
:1028D0000E9406128C2FCF910895CF93DF93C62FBD
:1028E00067E770E081EF92E00E948D116C2F81EF1D
:1028F00092E00E943A1181EF92E00E94061267E78F
:1029000070E081EF92E00E948D1142E050E067E7B5
:1029100070E081EF92E00E94031281EF92E00E944A
:10292000EA10D82F80E0C82F81EF92E00E94EA10D1
:10293000C82BD92B81EF92E00E940612CE01DF91C5
:10294000CF910895CF93DF93EC01643018F083E0CA
:10295000888301C0688381EF92E00E94791160ED65
:10296000CE010E944214853509F044C06AEACE01C6
:102970000E946D149A8389836CEACE010E946D14C3
:102980009C838B836EEACE010E946D149E838D839F
:1029900060EBCE010E946D149A8B898B62EBCE01A5
:1029A0000E946D149C8B8B8B64EBCE010E946D1486
:1029B0009E8B8D8B66EBCE010E946D1498878F8362
:1029C00068EBCE010E946D149A8789876AEBCE016D
:1029D0000E946D149C878B876CEBCE010E946D1456
:1029E0009E878D876EEBCE010E946D14988B8F872A
:1029F00081E001C080E0DF91CF910895CF93DF9314
:102A0000EC014EE264EF0E9421148FE097E20197FF
:102A1000F1F700C0000066EFCE01DF91CF910C947A
:102A20006D14CF92DF92EF92FF92CF93DF93EC0180
:102A30000E94FE149C0140E050E08D899E89281B75
:102A4000390B41095109AB89BC890E94FA1C6B0101
:102A50007C018FE0F594E794D794C7948A95D1F7D9
:102A60006D857E85882777FD8095982F2BE0660FF2
:102A7000771F881F991F2A95D1F72F8538894427FA
:102A800037FD4095542F2C0D3D1D4E1D5F1D0E949E
:102A9000DB1C2C0D3D1D4E1D5F1D285F3F4F4F4F12
:102AA0005F4F64E055954795379527956A95D1F71F
:102AB000C901DF91CF91FF90EF90DF90CF90089503
:102AC0000E941115BC01882777FD8095982F0E94E0
:102AD0000D1A20E030E040E251E40E947719089599
:102AE000CF92DF92EF92FF92CF93DF93EC01488178
:102AF0004295440F440F407C4C5C64EF0E942114CB
:102B00008881811105C08FE097E20197F1F712C02B
:102B1000813029F48FE79EE30197F1F70BC08230F3
:102B200029F48FE59DE60197F1F704C08FE19BEC56
:102B30000197F1F700C0000066EFCE010E946D140E
:102B40006C01E12CF12CFE2CED2CDC2CCC2468EF5C
:102B5000CE010E944214A7019601282BCA01B90197
:102B6000488128E030E0241B310904C09695879500
:102B7000779567952A95D2F7DF91CF91FF90EF90E7
:102B8000DF90CF9008952F923F924F925F926F9275
:102B90007F928F929F92AF92BF92CF92DF92EF92ED
:102BA000FF920F931F93CF93DF93CDB7DEB72A9792
:102BB0000FB6F894DEBF0FBECDBF9A8789870E94FB
:102BC000FE148C0189859A850E9470156D837E8321
:102BD0008F839887980140E050E0A985BA85559683
:102BE0008D919C915697281B390B41095109539699
:102BF0000D90BC91A02D0E94FA1C4B015C018FE04E
:102C0000B594A794979487948A95D1F7E985FA8526
:102C100065857685882777FD8095982F2BE0660F50
:102C2000771F881F991F2A95D1F727853089442758
:102C300037FD4095542F280D391D4A1D5B1D0E94FC
:102C4000DB1C69017A01C80CD91CEA1CFB1CF0EAE8
:102C5000CF1AFFE0DF0AE108F108A7019601C701DA
:102C6000B6010E94891C4B015C016CE0B594A794ED
:102C7000979487946A95D1F7A985BA8511962D9076
:102C80003C9012971C9115960D90BC91A02D0E941E
:102C9000051D2B013C017DE0759467945794479482
:102CA0007A95D1F7E985FA85A781B085A5019401C8
:102CB0000E94051DBB2797FDB095AB2F480E591EEE
:102CC0006A1E7B1EF2E04F0E511C611C711CF2E06B
:102CD0007594679457944794FA95D1F780E8580E05
:102CE000611C711CE985FA85A189B289A301920151
:102CF0000E94FA1CDC01CB010FE0B695A7959795D1
:102D000087950A95D1F789839A83AB83BC83210188
:102D1000662457FC6094762C82E0440C551C661C9B
:102D2000771C8A95D1F7A185B285A50194010E94EF
:102D3000051D4B015C019BE0B594A7949794879483
:102D40009A95D1F7A381B481A70196010E94051D30
:102D50002BE095958795779567952A95D1F7860EFF
:102D6000971EA81EB91E480C591C6A1C7B1C012EFC
:102D700004C0440C551C661C771C0A94D2F792E0E0
:102D8000490E511C611C711C32E075946794579474
:102D900047943A95D1F78D819E81AF81B88584198A
:102DA0009509A609B7098D839E83AF83B88760E52F
:102DB00073EC80E090E004C09695879577956795D1
:102DC0001A95D2F72D813E814F8158850E94891C2A
:102DD00097FD0DC0660F771F881F991F29813A81C3
:102DE0004B815C810E94B91C49015A010CC02981A8
:102DF0003A814B815C810E94B91C49015A01880CBF
:102E0000991CAA1CBB1C9927B7FC9A958B2D7A2D6F
:102E1000692D9B01AC010E94891C9B01AC01AEEDA8
:102E2000BBE00E94FA1C6C01FF24D7FCF094EF2C4D
:102E3000A3E4B3EEA50194010E94081DBB2797FDF2
:102E4000B095AB2FC80ED91EEA1EFB1E9FECC90E13
:102E50009EE0D91EE11CF11CB4E0F594E794D794F0
:102E6000C794BA95D1F7C80CD91CEA1CFB1CC70142
:102E7000B6012A960FB6F894DEBF0FBECDBFDF9124
:102E8000CF911F910F91FF90EF90DF90CF90BF9067
:102E9000AF909F908F907F906F905F904F903F90FA
:102EA0002F9008951F920F920FB60F9211242F9317
:102EB0003F938F939F93AF93BF938091B203909171
:102EC000B303A091B403B091B5033091B10326E0F0
:102ED000230F2D3720F40296A11DB11D05C029E84E
:102EE000230F0396A11DB11D2093B1038093B2035C
:102EF0009093B303A093B403B093B5038091B6034A
:102F00009091B703A091B803B091B9030196A11DA8
:102F1000B11D8093B6039093B703A093B803B09309
:102F2000B903BF91AF919F918F913F912F910F90D6
:102F30000FBE0F901F9018952FB7F8946091B203B1
:102F40007091B3038091B4039091B5032FBF08959E
:102F50003FB7F8948091B6039091B703A091B8035E
:102F6000B091B90326B5A89B05C02F3F19F0019673
:102F7000A11DB11D3FBF6627782F892F9A2F620FA1
:102F8000711D811D911D43E0660F771F881F991FDA
:102F90004A95D1F708958F929F92AF92BF92CF92A8
:102FA000DF92EF92FF926B017C010E94A8174B0108
:102FB0005C01C114D104E104F104F1F00E94111983
:102FC0000E94A817681979098A099B09683E73400D
:102FD0008105910570F321E0C21AD108E108F108DA
:102FE00088EE880E83E0981EA11CB11CC114D10488
:102FF000E104F10429F7DDCFFF90EF90DF90CF904F
:10300000BF90AF909F908F9008958330910528F0E6
:10301000880F991F04970197F1F70895789484B564
:10302000826084BD84B5816084BD85B5826085BDC4
:1030300085B5816085BDEEE6F0E0808181608083AA
:10304000E1E8F0E01082808182608083808181608D
:103050008083E0E8F0E0808181608083E1EBF0E054
:10306000808184608083E0EBF0E0808181608083F8
:10307000EAE7F0E0808184608083808182608083E1
:1030800080818E7F80838081806880831092C100E0
:1030900008958093170108958E3008F08E50877040
:1030A0002091170190E4299F90011124822B809395
:1030B0007C0080917A00806480937A0080917A000D
:1030C00086FDFCCF809178002091790090E0922BD2
:1030D0000895833081F028F4813099F08230A1F096
:1030E00008958730A9F08830B9F08430D1F4809108
:1030F00080008F7D03C0809180008F778093800057
:10310000089584B58F7702C084B58F7D84BD0895FE
:103110008091B0008F7703C08091B0008F7D809345
:10312000B0000895CF93DF9390E0FC01E05FFE4F85
:103130002491FC01EC5DFE4F8491882349F190E0DD
:10314000880F991FFC01EE5BFE4FA591B491885C3E
:103150009E4FFC01C591D4919FB7611108C0F894AE
:103160008C91209582238C93888182230AC06230BF
:1031700051F4F8948C91322F309583238C9388816D
:10318000822B888304C0F8948C91822B8C939FBFF0
:10319000DF91CF9108950F931F93CF93DF931F92E9
:1031A000CDB7DEB7282F30E0F901E450FF4F84910E
:1031B000F901E05FFE4F1491F901EC5DFE4F0491BF
:1031C0000023C9F0882321F069830E94691869816E
:1031D000E02FF0E0EE0FFF1FE85CFE4FA591B491E9
:1031E0009FB7F8948C91611103C01095812301C0A1
:1031F000812B8C939FBF0F90DF91CF911F910F91E7
:10320000089508950E940E180E9401190E94440218
:10321000C0E0D0E00E94FC022097E1F30E94000091
:10322000F9CF08955058BB27AA270ED06CC15DD1A5
:1032300030F062D120F031F49F3F11F41EF452C1FE
:103240000EF4E095E7FB48C1E92F6ED180F3BA1781
:10325000620773078407950718F071F49EF586C11D
:103260000EF4E0950B2EBA2FA02D0B01B9019001A1
:103270000C01CA01A0011124FF27591B99F0593FE5
:1032800050F4503E68F11A16F040A22F232F342F2D
:103290004427585FF3CF469537952795A795F0407B
:1032A0005395C9F77EF41F16BA0B620B730B840B90
:1032B000BAF09150A1F0FF0FBB1F661F771F881F48
:1032C000C2F70EC0BA0F621F731F841F48F48795A0
:1032D00077956795B795F7959E3F08F0B3CF93958F
:1032E000880F08F09927EE0F9795879508950CD0D1
:1032F0000AC102D140F0F9D030F021F45F3F19F05B
:10330000EBC0511134C1EEC00FD198F39923C9F32A
:103310005523B1F3951B550BBB27AA2762177307DB
:10332000840738F09F5F5F4F220F331F441FAA1F8F
:10333000A9F333D00E2E3AF0E0E830D0915050404F
:10334000E695001CCAF729D0FE2F27D0660F771FFD
:10335000881FBB1F261737074807AB07B0E809F0DF
:10336000BB0B802DBF01FF2793585F4F2AF09E3F74
:10337000510568F0B1C0FBC05F3FECF3983EDCF351
:10338000869577956795B795F7959F5FC9F7880FED
:10339000911D9695879597F90895E1E0660F771F3F
:1033A000881FBB1F621773078407BA0720F0621BD0
:1033B000730B840BBA0BEE1F88F7E0950895BCD011
:1033C00088F09F5790F0B92F9927B751A0F0D1F00E
:1033D000660F771F881F991F1AF0BA95C9F712C098
:1033E000B13081F0C3D0B1E00895C0C0672F782F0D
:1033F0008827B85F39F0B93FCCF386957795679504
:10340000B395D9F73EF490958095709561957F4F6F
:103410008F4F9F4F0895E89409C097FB3EF4909515
:103420008095709561957F4F8F4F9F4F9923A9F09D
:10343000F92F96E9BB279395F6958795779567952C
:10344000B795F111F8CFFAF4BB0F11F460FF1BC070
:103450006F5F7F4F8F4F9F4F16C0882311F096E903
:1034600011C0772321F09EE8872F762F05C06623B1
:1034700071F096E8862F70E060E02AF09A95660F6A
:10348000771F881FDAF7880F9695879597F9089523
:10349000990F0008550FAA0BE0E8FEEF1616170665
:1034A000E807F907C0F012161306E407F50798F0CD
:1034B000621B730B840B950B39F40A2661F0232BE6
:1034C000242B252B21F408950A2609F4A140A69562
:1034D0008FEF811D811D089597F99F6780E870E047
:1034E00060E008959FEF80EC089500240A9416167A
:1034F000170618060906089500240A9412161306E2
:10350000140605060895092E0394000C11F488236F
:1035100052F0BB0F40F4BF2B11F460FF04C06F5F8B
:103520007F4F8F4F9F4F089557FD9058440F551F61
:1035300059F05F3F71F04795880F97FB991F61F035
:103540009F3F79F087950895121613061406551FAC
:10355000F2CF4695F1DF08C0161617061806991F18
:10356000F1CF86957105610508940895E894BB270D
:1035700066277727CB0197F908958ADF08F48FEF44
:1035800008950BD0C0CFB1DF28F0B6DF18F0952337
:1035900009F0A2CFA7CF1124EACFC6DFA0F3959FF1
:1035A000D1F3950F50E0551F629FF001729FBB272A
:1035B000F00DB11D639FAA27F00DB11DAA1F649FD6
:1035C0006627B00DA11D661F829F2227B00DA11D89
:1035D000621F739FB00DA11D621F839FA00D611D0F
:1035E000221F749F3327A00D611D231F849F600D30
:1035F000211D822F762F6A2F11249F5750408AF069
:10360000E1F088234AF0EE0FFF1FBB1F661F771FF4
:10361000881F91505040A9F79E3F510570F05CCF34
:10362000A6CF5F3FECF3983EDCF3869577956795E0
:10363000B795F795E7959F5FC1F7FE2B880F911D12
:103640009695879597F90895FA01EE0FFF1F30962A
:103650002105310599F16115710561F48038BFE3E9
:103660009B0749F168949038810561F08038BFEF7D
:103670009B0741F0992342F5FF3FE1053105210504
:1036800011F1E8940894E795D901AA2329F4AB2F06
:10369000BE2FF85FD0F310C0FF5F70F4A695E0F77F
:1036A000F73950F019F0FF3A38F49F779F930CD018
:1036B0000F9007FC905808953EF014CF60E070E042
:1036C00080E89FE308954FE79F775F934F933F9381
:1036D0002F939ED02F913F914F915F9152DF05C064
:1036E00019F40EF0F9CE42CFFDCE26DFC8F396389E
:1036F000C0F707F80F92E8942BE33AEA48EB5FE74C
:103700004EDF0F920F920F924DB75EB70F92C0D05F
:10371000E8E6F0E016D04F915F91EF91FF91E595CB
:10372000EE1FFF1F49F0FE57E0684427EE0F441FCD
:10373000FA95E1F74195550B32D00F9007FE26C060
:103740000895DF93CF931F930F93FF92EF92DF9231
:103750007B018C01689405C0DA2EEF011EDFFE01AB
:10376000E894A5912591359145915591AEF3EF01DE
:103770006BDDFE019701A801DA9479F7DF90EF90F5
:10378000FF900F911F91CF91DF9108959B01AC01A4
:1037900060E070E080E89FE3AACD9ECEACC0CCDEB6
:1037A000E8F39923D9F3940F511DBBF39150504086
:1037B00094F059F0882332F0660F771F881F9150DC
:1037C0005040C1F79E3F510544F7880F911D9695D3
:1037D000879597F908955F3FACF0983E9CF0BB2722
:1037E000869577956795B79508F4B1609395C1F77D
:1037F000BB0F58F711F460FFE8CF6F5F7F4F8F4F1B
:103800009F4FE3CFB4CE0EF076C06CCE689464CEFA
:1038100093DEC8F39923D1F3C6F3DF93CF931F93BD
:103820000F93FF92C92FDD2788232AF02197660F77
:10383000771F881FDAF720E030E040E85FEB9FE376
:10384000883920F0803E30F021968F77ECDCE0E97B
:10385000F0E003C0E8DCEDEBF0E073DF8B01BE01CC
:10386000EC01FB2E6F5771097595771F880B990B2B
:10387000D4DD28E132E741E35FE38FDEAF2D98012D
:10388000AE01FF900F911F91CF91DF91DDDC3BCE18
:10389000FA01DC01AA0FBB1F9B01AC01BF5728F442
:1038A00022273327442750781FC0B75188F4AB2F05
:1038B0000024469537952795011CA395D2F3002047
:1038C00069F0220F331F441FB395DAF30DD0AACC51
:1038D00061307105A0E88A07B94630F49B01AC015C
:1038E0006627772788279078309621F020833183C8
:1038F0004283538308959F3F31F0915020F4879580
:1039000077956795B795880F911D9695879597F947
:103910000895DB018F939F930E94FA1CBF91AF9192
:10392000A29F800D911DA39F900DB29F900D112419
:103930000895991B79E004C0991F961708F0961B0B
:10394000881F7A95C9F780950895AA1BBB1B51E182
:1039500007C0AA1FBB1FA617B70710F0A61BB70BFF
:10396000881F991F5A95A9F780959095BC01CD01A4
:103970000895A1E21A2EAA1BBB1BFD010DC0AA1FB0
:10398000BB1FEE1FFF1FA217B307E407F50720F0C8
:10399000A21BB30BE40BF50B661F771F881F991F43
:1039A0001A9469F760957095809590959B01AC018C
:1039B000BD01CF010895052E97FB1EF400940E94CF
:1039C000F21C57FD07D00E94B91C07FC03D04EF42F
:1039D0000C94F21C50954095309521953F4F4F4FD8
:1039E0005F4F089590958095709561957F4F8F4FAB
:1039F0009F4F08950E94131DA59F900DB49F900D99
:103A0000A49F800D911D11240895B7FF0C94FA1CFA
:103A10000E94FA1C821B930B0895EE0FFF1F059066
:103A2000F491E02D0994A29FB001B39FC001A39F20
:103A3000700D811D1124911DB29F700D811D1124E7
:103A4000911D0895FB01DC0102C001900D924150CF
:103A50005040D8F708956817790768F4FB01DC0136
:103A6000E40FF51FA40FB51F02C002900E92415043
:0E3A70005040D8F708950C94221DF894FFCF13
:103A7E00010000803F0000A0400000803F000020B9
:103A8E004100007042010001C33C33CE3EE3EC0026
:103A9E000000003A110D11E210EA10FD100C110099
:00000001FF
